{
  "_format": "hh-sol-artifact-1",
  "contractName": "SadGorilla",
  "sourceName": "contracts/sadGorilla.sol",
  "abi": [
    {
      "inputs": [
        {
          "internalType": "string",
          "name": "name",
          "type": "string"
        },
        {
          "internalType": "string",
          "name": "symbol",
          "type": "string"
        }
      ],
      "stateMutability": "nonpayable",
      "type": "constructor"
    },
    {
      "anonymous": false,
      "inputs": [
        {
          "indexed": true,
          "internalType": "address",
          "name": "owner",
          "type": "address"
        },
        {
          "indexed": true,
          "internalType": "address",
          "name": "approved",
          "type": "address"
        },
        {
          "indexed": true,
          "internalType": "uint256",
          "name": "tokenId",
          "type": "uint256"
        }
      ],
      "name": "Approval",
      "type": "event"
    },
    {
      "anonymous": false,
      "inputs": [
        {
          "indexed": true,
          "internalType": "address",
          "name": "owner",
          "type": "address"
        },
        {
          "indexed": true,
          "internalType": "address",
          "name": "operator",
          "type": "address"
        },
        {
          "indexed": false,
          "internalType": "bool",
          "name": "approved",
          "type": "bool"
        }
      ],
      "name": "ApprovalForAll",
      "type": "event"
    },
    {
      "anonymous": false,
      "inputs": [
        {
          "indexed": true,
          "internalType": "address",
          "name": "previousOwner",
          "type": "address"
        },
        {
          "indexed": true,
          "internalType": "address",
          "name": "newOwner",
          "type": "address"
        }
      ],
      "name": "OwnershipTransferred",
      "type": "event"
    },
    {
      "anonymous": false,
      "inputs": [
        {
          "indexed": true,
          "internalType": "address",
          "name": "from",
          "type": "address"
        },
        {
          "indexed": true,
          "internalType": "address",
          "name": "to",
          "type": "address"
        },
        {
          "indexed": true,
          "internalType": "uint256",
          "name": "tokenId",
          "type": "uint256"
        }
      ],
      "name": "Transfer",
      "type": "event"
    },
    {
      "inputs": [
        {
          "internalType": "address",
          "name": "to",
          "type": "address"
        },
        {
          "internalType": "uint256",
          "name": "tokenId",
          "type": "uint256"
        }
      ],
      "name": "approve",
      "outputs": [],
      "stateMutability": "nonpayable",
      "type": "function"
    },
    {
      "inputs": [
        {
          "internalType": "address",
          "name": "owner",
          "type": "address"
        }
      ],
      "name": "balanceOf",
      "outputs": [
        {
          "internalType": "uint256",
          "name": "",
          "type": "uint256"
        }
      ],
      "stateMutability": "view",
      "type": "function"
    },
    {
      "inputs": [
        {
          "internalType": "uint256",
          "name": "tokenId",
          "type": "uint256"
        }
      ],
      "name": "getApproved",
      "outputs": [
        {
          "internalType": "address",
          "name": "",
          "type": "address"
        }
      ],
      "stateMutability": "view",
      "type": "function"
    },
    {
      "inputs": [],
      "name": "getBalance",
      "outputs": [
        {
          "internalType": "uint256",
          "name": "",
          "type": "uint256"
        }
      ],
      "stateMutability": "view",
      "type": "function"
    },
    {
      "inputs": [
        {
          "internalType": "address",
          "name": "owner",
          "type": "address"
        },
        {
          "internalType": "address",
          "name": "operator",
          "type": "address"
        }
      ],
      "name": "isApprovedForAll",
      "outputs": [
        {
          "internalType": "bool",
          "name": "",
          "type": "bool"
        }
      ],
      "stateMutability": "view",
      "type": "function"
    },
    {
      "inputs": [],
      "name": "mint",
      "outputs": [
        {
          "internalType": "uint256",
          "name": "",
          "type": "uint256"
        }
      ],
      "stateMutability": "payable",
      "type": "function"
    },
    {
      "inputs": [],
      "name": "name",
      "outputs": [
        {
          "internalType": "string",
          "name": "",
          "type": "string"
        }
      ],
      "stateMutability": "view",
      "type": "function"
    },
    {
      "inputs": [],
      "name": "owner",
      "outputs": [
        {
          "internalType": "address",
          "name": "",
          "type": "address"
        }
      ],
      "stateMutability": "view",
      "type": "function"
    },
    {
      "inputs": [
        {
          "internalType": "uint256",
          "name": "tokenId",
          "type": "uint256"
        }
      ],
      "name": "ownerOf",
      "outputs": [
        {
          "internalType": "address",
          "name": "",
          "type": "address"
        }
      ],
      "stateMutability": "view",
      "type": "function"
    },
    {
      "inputs": [],
      "name": "renounceOwnership",
      "outputs": [],
      "stateMutability": "nonpayable",
      "type": "function"
    },
    {
      "inputs": [
        {
          "internalType": "address",
          "name": "from",
          "type": "address"
        },
        {
          "internalType": "address",
          "name": "to",
          "type": "address"
        },
        {
          "internalType": "uint256",
          "name": "tokenId",
          "type": "uint256"
        }
      ],
      "name": "safeTransferFrom",
      "outputs": [],
      "stateMutability": "nonpayable",
      "type": "function"
    },
    {
      "inputs": [
        {
          "internalType": "address",
          "name": "from",
          "type": "address"
        },
        {
          "internalType": "address",
          "name": "to",
          "type": "address"
        },
        {
          "internalType": "uint256",
          "name": "tokenId",
          "type": "uint256"
        },
        {
          "internalType": "bytes",
          "name": "_data",
          "type": "bytes"
        }
      ],
      "name": "safeTransferFrom",
      "outputs": [],
      "stateMutability": "nonpayable",
      "type": "function"
    },
    {
      "inputs": [
        {
          "internalType": "address",
          "name": "operator",
          "type": "address"
        },
        {
          "internalType": "bool",
          "name": "approved",
          "type": "bool"
        }
      ],
      "name": "setApprovalForAll",
      "outputs": [],
      "stateMutability": "nonpayable",
      "type": "function"
    },
    {
      "inputs": [
        {
          "internalType": "string",
          "name": "baseURI_",
          "type": "string"
        }
      ],
      "name": "setBaseURI",
      "outputs": [],
      "stateMutability": "nonpayable",
      "type": "function"
    },
    {
      "inputs": [
        {
          "internalType": "bytes4",
          "name": "interfaceId",
          "type": "bytes4"
        }
      ],
      "name": "supportsInterface",
      "outputs": [
        {
          "internalType": "bool",
          "name": "",
          "type": "bool"
        }
      ],
      "stateMutability": "view",
      "type": "function"
    },
    {
      "inputs": [],
      "name": "symbol",
      "outputs": [
        {
          "internalType": "string",
          "name": "",
          "type": "string"
        }
      ],
      "stateMutability": "view",
      "type": "function"
    },
    {
      "inputs": [
        {
          "internalType": "uint256",
          "name": "index",
          "type": "uint256"
        }
      ],
      "name": "tokenByIndex",
      "outputs": [
        {
          "internalType": "uint256",
          "name": "",
          "type": "uint256"
        }
      ],
      "stateMutability": "view",
      "type": "function"
    },
    {
      "inputs": [
        {
          "internalType": "address",
          "name": "owner",
          "type": "address"
        },
        {
          "internalType": "uint256",
          "name": "index",
          "type": "uint256"
        }
      ],
      "name": "tokenOfOwnerByIndex",
      "outputs": [
        {
          "internalType": "uint256",
          "name": "",
          "type": "uint256"
        }
      ],
      "stateMutability": "view",
      "type": "function"
    },
    {
      "inputs": [
        {
          "internalType": "uint256",
          "name": "_tokenId",
          "type": "uint256"
        }
      ],
      "name": "tokenURI",
      "outputs": [
        {
          "internalType": "string",
          "name": "",
          "type": "string"
        }
      ],
      "stateMutability": "view",
      "type": "function"
    },
    {
      "inputs": [],
      "name": "totalSupply",
      "outputs": [
        {
          "internalType": "uint256",
          "name": "",
          "type": "uint256"
        }
      ],
      "stateMutability": "view",
      "type": "function"
    },
    {
      "inputs": [
        {
          "internalType": "address",
          "name": "from",
          "type": "address"
        },
        {
          "internalType": "address",
          "name": "to",
          "type": "address"
        },
        {
          "internalType": "uint256",
          "name": "tokenId",
          "type": "uint256"
        }
      ],
      "name": "transferFrom",
      "outputs": [],
      "stateMutability": "nonpayable",
      "type": "function"
    },
    {
      "inputs": [
        {
          "internalType": "address",
          "name": "newOwner",
          "type": "address"
        }
      ],
      "name": "transferOwnership",
      "outputs": [],
      "stateMutability": "nonpayable",
      "type": "function"
    },
    {
      "inputs": [],
      "name": "withdrawMoney",
      "outputs": [],
      "stateMutability": "nonpayable",
      "type": "function"
    }
  ],
  "bytecode": "0x6103e7600d5561010060405260516080818152906200212d60a03980516200003091600e916020909101906200011c565b50670162ea854d0fc000600f553480156200004a57600080fd5b506040516200217e3803806200217e8339810160408190526200006d9162000275565b815182908290620000869060009060208501906200011c565b5080516200009c9060019060208401906200011c565b505050620000b9620000b3620000c660201b60201c565b620000ca565b50506000600b556200032f565b3390565b600a80546001600160a01b038381166001600160a01b0319831681179093556040519116919082907f8be0079c531659141344cd1fd0a4f28419497f9722a3daafe3b4186f6b6457e090600090a35050565b8280546200012a90620002dc565b90600052602060002090601f0160209004810192826200014e576000855562000199565b82601f106200016957805160ff191683800117855562000199565b8280016001018555821562000199579182015b82811115620001995782518255916020019190600101906200017c565b50620001a7929150620001ab565b5090565b5b80821115620001a75760008155600101620001ac565b600082601f830112620001d3578081fd5b81516001600160401b0380821115620001f057620001f062000319565b604051601f8301601f19908116603f011681019082821181831017156200021b576200021b62000319565b8160405283815260209250868385880101111562000237578485fd5b8491505b838210156200025a57858201830151818301840152908201906200023b565b838211156200026b57848385830101525b9695505050505050565b6000806040838503121562000288578182fd5b82516001600160401b03808211156200029f578384fd5b620002ad86838701620001c2565b93506020850151915080821115620002c3578283fd5b50620002d285828601620001c2565b9150509250929050565b600281046001821680620002f157607f821691505b602082108114156200031357634e487b7160e01b600052602260045260246000fd5b50919050565b634e487b7160e01b600052604160045260246000fd5b611dee806200033f6000396000f3fe6080604052600436106101405760003560e01c806355f804b3116100b6578063a22cb4651161006f578063a22cb46514610358578063ac44600214610378578063b88d4fde1461038d578063c87b56dd146103ad578063e985e9c5146103cd578063f2fde38b1461041657610140565b806355f804b3146102b05780636352211e146102d057806370a08231146102f0578063715018a6146103105780638da5cb5b1461032557806395d89b411461034357610140565b80631249c58b116101085780631249c58b1461021357806318160ddd1461021b57806323b872dd146102305780632f745c591461025057806342842e0e146102705780634f6ccce71461029057610140565b806301ffc9a71461014557806306fdde031461017a578063081812fc1461019c578063095ea7b3146101d457806312065fe0146101f6575b600080fd5b34801561015157600080fd5b506101656101603660046119c7565b610436565b60405190151581526020015b60405180910390f35b34801561018657600080fd5b5061018f610449565b6040516101719190611b9c565b3480156101a857600080fd5b506101bc6101b7366004611a45565b6104db565b6040516001600160a01b039091168152602001610171565b3480156101e057600080fd5b506101f46101ef36600461199e565b610575565b005b34801561020257600080fd5b50475b604051908152602001610171565b61020561068b565b34801561022757600080fd5b50600854610205565b34801561023c57600080fd5b506101f461024b3660046118b0565b61077b565b34801561025c57600080fd5b5061020561026b36600461199e565b6107ac565b34801561027c57600080fd5b506101f461028b3660046118b0565b610842565b34801561029c57600080fd5b506102056102ab366004611a45565b61085d565b3480156102bc57600080fd5b506101f46102cb3660046119ff565b6108fe565b3480156102dc57600080fd5b506101bc6102eb366004611a45565b61093f565b3480156102fc57600080fd5b5061020561030b36600461185d565b6109b6565b34801561031c57600080fd5b506101f4610a3d565b34801561033157600080fd5b50600a546001600160a01b03166101bc565b34801561034f57600080fd5b5061018f610a73565b34801561036457600080fd5b506101f4610373366004611964565b610a82565b34801561038457600080fd5b506101f4610a8d565b34801561039957600080fd5b506101f46103a83660046118eb565b610ae5565b3480156103b957600080fd5b5061018f6103c8366004611a45565b610b1d565b3480156103d957600080fd5b506101656103e836600461187e565b6001600160a01b03918216600090815260056020908152604080832093909416825291909152205460ff1690565b34801561042257600080fd5b506101f461043136600461185d565b610bce565b600061044182610c69565b90505b919050565b60606000805461045890611cf6565b80601f016020809104026020016040519081016040528092919081815260200182805461048490611cf6565b80156104d15780601f106104a6576101008083540402835291602001916104d1565b820191906000526020600020905b8154815290600101906020018083116104b457829003601f168201915b5050505050905090565b6000818152600260205260408120546001600160a01b03166105595760405162461bcd60e51b815260206004820152602c60248201527f4552433732313a20617070726f76656420717565727920666f72206e6f6e657860448201526b34b9ba32b73a103a37b5b2b760a11b60648201526084015b60405180910390fd5b506000908152600460205260409020546001600160a01b031690565b60006105808261093f565b9050806001600160a01b0316836001600160a01b031614156105ee5760405162461bcd60e51b815260206004820152602160248201527f4552433732313a20617070726f76616c20746f2063757272656e74206f776e656044820152603960f91b6064820152608401610550565b336001600160a01b038216148061060a575061060a81336103e8565b61067c5760405162461bcd60e51b815260206004820152603860248201527f4552433732313a20617070726f76652063616c6c6572206973206e6f74206f7760448201527f6e6572206e6f7220617070726f76656420666f7220616c6c00000000000000006064820152608401610550565b6106868383610c8e565b505050565b6000600d54600b54106106cb5760405162461bcd60e51b815260206004820152600860248201526714dbdb190813dd5d60c21b6044820152606401610550565b600f543410156107125760405162461bcd60e51b815260206004820152601260248201527124b739bab33334b1b4b2b73a1022ba3432b960711b6044820152606401610550565b600b5461012c14806107275750600b54610279145b806107355750600b546103c6145b15610753576021600b600082825461074d9190611c87565b90915550505b600b805490600061076383611d31565b919050555061077433600b54610cfc565b50600b5490565b6107853382610e4b565b6107a15760405162461bcd60e51b815260040161055090611c36565b610686838383610f42565b60006107b7836109b6565b82106108195760405162461bcd60e51b815260206004820152602b60248201527f455243373231456e756d657261626c653a206f776e657220696e646578206f7560448201526a74206f6620626f756e647360a81b6064820152608401610550565b506001600160a01b03919091166000908152600660209081526040808320938352929052205490565b61068683838360405180602001604052806000815250610ae5565b600061086860085490565b82106108cb5760405162461bcd60e51b815260206004820152602c60248201527f455243373231456e756d657261626c653a20676c6f62616c20696e646578206f60448201526b7574206f6620626f756e647360a01b6064820152608401610550565b600882815481106108ec57634e487b7160e01b600052603260045260246000fd5b90600052602060002001549050919050565b600a546001600160a01b031633146109285760405162461bcd60e51b815260040161055090611c01565b805161093b90600e906020840190611737565b5050565b6000818152600260205260408120546001600160a01b0316806104415760405162461bcd60e51b815260206004820152602960248201527f4552433732313a206f776e657220717565727920666f72206e6f6e657869737460448201526832b73a103a37b5b2b760b91b6064820152608401610550565b60006001600160a01b038216610a215760405162461bcd60e51b815260206004820152602a60248201527f4552433732313a2062616c616e636520717565727920666f7220746865207a65604482015269726f206164647265737360b01b6064820152608401610550565b506001600160a01b031660009081526003602052604090205490565b600a546001600160a01b03163314610a675760405162461bcd60e51b815260040161055090611c01565b610a7160006110e9565b565b60606001805461045890611cf6565b61093b33838361113b565b600a546001600160a01b03163314610ab75760405162461bcd60e51b815260040161055090611c01565b33806108fc476040518115909202916000818181858888f1935050505015801561093b573d6000803e3d6000fd5b610aef3383610e4b565b610b0b5760405162461bcd60e51b815260040161055090611c36565b610b178484848461120a565b50505050565b6000818152600260205260409020546060906001600160a01b0316610b9c5760405162461bcd60e51b815260206004820152602f60248201527f4552433732314d657461646174613a2055524920717565727920666f72206e6f60448201526e3732bc34b9ba32b73a103a37b5b2b760891b6064820152608401610550565b600e610ba78361123d565b604051602001610bb8929190611aa5565b6040516020818303038152906040529050919050565b600a546001600160a01b03163314610bf85760405162461bcd60e51b815260040161055090611c01565b6001600160a01b038116610c5d5760405162461bcd60e51b815260206004820152602660248201527f4f776e61626c653a206e6577206f776e657220697320746865207a65726f206160448201526564647265737360d01b6064820152608401610550565b610c66816110e9565b50565b60006001600160e01b0319821663780e9d6360e01b1480610441575061044182611358565b600081815260046020526040902080546001600160a01b0319166001600160a01b0384169081179091558190610cc38261093f565b6001600160a01b03167f8c5be1e5ebec7d5bd14f71427d1e84f3dd0314c0f7b2291e5b200ac8c7c3b92560405160405180910390a45050565b6001600160a01b038216610d525760405162461bcd60e51b815260206004820181905260248201527f4552433732313a206d696e7420746f20746865207a65726f20616464726573736044820152606401610550565b6000818152600260205260409020546001600160a01b031615610db75760405162461bcd60e51b815260206004820152601c60248201527f4552433732313a20746f6b656e20616c7265616479206d696e746564000000006044820152606401610550565b610dc3600083836113a8565b6001600160a01b0382166000908152600360205260408120805460019290610dec908490611c87565b909155505060008181526002602052604080822080546001600160a01b0319166001600160a01b03861690811790915590518392907fddf252ad1be2c89b69c2b068fc378daa952ba7f163c4a11628f55a4df523b3ef908290a461093b565b6000818152600260205260408120546001600160a01b0316610ec45760405162461bcd60e51b815260206004820152602c60248201527f4552433732313a206f70657261746f7220717565727920666f72206e6f6e657860448201526b34b9ba32b73a103a37b5b2b760a11b6064820152608401610550565b6000610ecf8361093f565b9050806001600160a01b0316846001600160a01b03161480610f1657506001600160a01b0380821660009081526005602090815260408083209388168352929052205460ff165b80610f3a5750836001600160a01b0316610f2f846104db565b6001600160a01b0316145b949350505050565b826001600160a01b0316610f558261093f565b6001600160a01b031614610fb95760405162461bcd60e51b815260206004820152602560248201527f4552433732313a207472616e736665722066726f6d20696e636f72726563742060448201526437bbb732b960d91b6064820152608401610550565b6001600160a01b03821661101b5760405162461bcd60e51b8152602060048201526024808201527f4552433732313a207472616e7366657220746f20746865207a65726f206164646044820152637265737360e01b6064820152608401610550565b6110268383836113a8565b611031600082610c8e565b6001600160a01b038316600090815260036020526040812080546001929061105a908490611cb3565b90915550506001600160a01b0382166000908152600360205260408120805460019290611088908490611c87565b909155505060008181526002602052604080822080546001600160a01b0319166001600160a01b0386811691821790925591518493918716917fddf252ad1be2c89b69c2b068fc378daa952ba7f163c4a11628f55a4df523b3ef91a4610686565b600a80546001600160a01b038381166001600160a01b0319831681179093556040519116919082907f8be0079c531659141344cd1fd0a4f28419497f9722a3daafe3b4186f6b6457e090600090a35050565b816001600160a01b0316836001600160a01b0316141561119d5760405162461bcd60e51b815260206004820152601960248201527f4552433732313a20617070726f766520746f2063616c6c6572000000000000006044820152606401610550565b6001600160a01b03838116600081815260056020908152604080832094871680845294825291829020805460ff191686151590811790915591519182527f17307eab39ab6107e8899845ad3d59bd9653f200f220920489ca2b5937696c31910160405180910390a3505050565b611215848484610f42565b611221848484846113b3565b610b175760405162461bcd60e51b815260040161055090611baf565b60608161126257506040805180820190915260018152600360fc1b6020820152610444565b8160005b811561128c578061127681611d31565b91506112859050600a83611c9f565b9150611266565b60008167ffffffffffffffff8111156112b557634e487b7160e01b600052604160045260246000fd5b6040519080825280601f01601f1916602001820160405280156112df576020820181803683370190505b5090505b8415610f3a576112f4600183611cb3565b9150611301600a86611d4c565b61130c906030611c87565b60f81b81838151811061132f57634e487b7160e01b600052603260045260246000fd5b60200101906001600160f81b031916908160001a905350611351600a86611c9f565b94506112e3565b60006001600160e01b031982166380ac58cd60e01b148061138957506001600160e01b03198216635b5e139f60e01b145b8061044157506301ffc9a760e01b6001600160e01b0319831614610441565b6106868383836114c0565b60006001600160a01b0384163b156114b557604051630a85bd0160e11b81526001600160a01b0385169063150b7a02906113f7903390899088908890600401611b5f565b602060405180830381600087803b15801561141157600080fd5b505af1925050508015611441575060408051601f3d908101601f1916820190925261143e918101906119e3565b60015b61149b573d80801561146f576040519150601f19603f3d011682016040523d82523d6000602084013e611474565b606091505b5080516114935760405162461bcd60e51b815260040161055090611baf565b805181602001fd5b6001600160e01b031916630a85bd0160e11b149050610f3a565b506001949350505050565b6001600160a01b03831661151b5761151681600880546000838152600960205260408120829055600182018355919091527ff3f7a9fe364faab93b216da50a3214154f22a0a2b415b23a84c8169e8b636ee30155565b61153e565b816001600160a01b0316836001600160a01b03161461153e5761153e838261157d565b6001600160a01b03821661155a576115558161161a565b610686565b826001600160a01b0316826001600160a01b0316146106865761068682826116f3565b6000600161158a846109b6565b6115949190611cb3565b6000838152600760205260409020549091508082146115e7576001600160a01b03841660009081526006602090815260408083208584528252808320548484528184208190558352600790915290208190555b5060009182526007602090815260408084208490556001600160a01b039094168352600681528383209183525290812055565b60085460009061162c90600190611cb3565b6000838152600960205260408120546008805493945090928490811061166257634e487b7160e01b600052603260045260246000fd5b90600052602060002001549050806008838154811061169157634e487b7160e01b600052603260045260246000fd5b60009182526020808320909101929092558281526009909152604080822084905585825281205560088054806116d757634e487b7160e01b600052603160045260246000fd5b6001900381819060005260206000200160009055905550505050565b60006116fe836109b6565b6001600160a01b039093166000908152600660209081526040808320868452825280832085905593825260079052919091209190915550565b82805461174390611cf6565b90600052602060002090601f01602090048101928261176557600085556117ab565b82601f1061177e57805160ff19168380011785556117ab565b828001600101855582156117ab579182015b828111156117ab578251825591602001919060010190611790565b506117b79291506117bb565b5090565b5b808211156117b757600081556001016117bc565b600067ffffffffffffffff808411156117eb576117eb611d8c565b604051601f8501601f19908116603f0116810190828211818310171561181357611813611d8c565b8160405280935085815286868601111561182c57600080fd5b858560208301376000602087830101525050509392505050565b80356001600160a01b038116811461044457600080fd5b60006020828403121561186e578081fd5b61187782611846565b9392505050565b60008060408385031215611890578081fd5b61189983611846565b91506118a760208401611846565b90509250929050565b6000806000606084860312156118c4578081fd5b6118cd84611846565b92506118db60208501611846565b9150604084013590509250925092565b60008060008060808587031215611900578081fd5b61190985611846565b935061191760208601611846565b925060408501359150606085013567ffffffffffffffff811115611939578182fd5b8501601f81018713611949578182fd5b611958878235602084016117d0565b91505092959194509250565b60008060408385031215611976578182fd5b61197f83611846565b915060208301358015158114611993578182fd5b809150509250929050565b600080604083850312156119b0578182fd5b6119b983611846565b946020939093013593505050565b6000602082840312156119d8578081fd5b813561187781611da2565b6000602082840312156119f4578081fd5b815161187781611da2565b600060208284031215611a10578081fd5b813567ffffffffffffffff811115611a26578182fd5b8201601f81018413611a36578182fd5b610f3a848235602084016117d0565b600060208284031215611a56578081fd5b5035919050565b60008151808452611a75816020860160208601611cca565b601f01601f19169290920160200192915050565b60008151611a9b818560208601611cca565b9290920192915050565b8254600090819060028104600180831680611ac157607f831692505b6020808410821415611ae157634e487b7160e01b87526022600452602487fd5b818015611af55760018114611b0657611b32565b60ff19861689528489019650611b32565b60008b815260209020885b86811015611b2a5781548b820152908501908301611b11565b505084890196505b505050505050611b56611b458286611a89565b64173539b7b760d91b815260050190565b95945050505050565b6001600160a01b0385811682528416602082015260408101839052608060608201819052600090611b9290830184611a5d565b9695505050505050565b6000602082526118776020830184611a5d565b60208082526032908201527f4552433732313a207472616e7366657220746f206e6f6e20455243373231526560408201527131b2b4bb32b91034b6b83632b6b2b73a32b960711b606082015260800190565b6020808252818101527f4f776e61626c653a2063616c6c6572206973206e6f7420746865206f776e6572604082015260600190565b60208082526031908201527f4552433732313a207472616e736665722063616c6c6572206973206e6f74206f6040820152701ddb995c881b9bdc88185c1c1c9bdd9959607a1b606082015260800190565b60008219821115611c9a57611c9a611d60565b500190565b600082611cae57611cae611d76565b500490565b600082821015611cc557611cc5611d60565b500390565b60005b83811015611ce5578181015183820152602001611ccd565b83811115610b175750506000910152565b600281046001821680611d0a57607f821691505b60208210811415611d2b57634e487b7160e01b600052602260045260246000fd5b50919050565b6000600019821415611d4557611d45611d60565b5060010190565b600082611d5b57611d5b611d76565b500690565b634e487b7160e01b600052601160045260246000fd5b634e487b7160e01b600052601260045260246000fd5b634e487b7160e01b600052604160045260246000fd5b6001600160e01b031981168114610c6657600080fdfea26469706673582212202d7b8d99baa6d1fc17eb4f11b0aa58fc84517014dfb7e3b6d9d6099549e8960364736f6c6343000802003368747470733a2f2f676174657761792e70696e6174612e636c6f75642f697066732f516d5065634d4a4336586e4a506969386f36316a5448346e5834384b315a71325847557557586f634d31595236792f",
  "linkReferences": {},
  "deployedLinkReferences": {}
}